:1000000000800020BD0100005926000025260000C8
:1000100025260000252600002526000025260000B4
:100020002526000025260000252600005926000070
:10003000592600002526000059260000152600003C
:1000400059260000592600005926000059260000B4
:1000500059260000592600005926000059260000A4
:100060005926000059260000592600005926000094
:100070005926000059260000592600005926000084
:100080005926000059260000592600005926000074
:100090005926000059260000592600005926000064
:1000A0005926000059260000592600005926000054
:1000B0005926000059260000592600005926000044
:1000C0005926000059260000592600005926000034
:1000D0005926000059260000592600005926000024
:1000E0005926000059260000592600005926000014
:1000F000592600007111000059260000C9170000A0
:1001000059260000791C00005926000059260000DD
:1001100059260000592600005926000059260000E3
:1001200059260000592600005926000059260000D3
:1001300059260000592600005926000059260000C3
:1001400059260000592600005926000059260000B3
:1001500059260000592600005926000059260000A3
:1001600059260000DD1E0000592600005926000017
:100170005926000059260000592600005926000083
:100180005926000059260000592600005926000073
:100190005926000059260000592600005926000063
:1001A0005926000059260000592600005926000053
:1001B000592600005926000059260000564B4CF2E3
:1001C000205210B51A804DF628121A8000BF00BFC9
:1001D00002F046FA514B4FF010621A60504A9A6092
:1001E000504ADA60A3F53043203B1A6812F480725B
:1001F00004D14D490A604FF4A8521A604B4B1A784B
:10020000110703D51A7842F008021A70484B2A22C7
:100210001A700023474A48499818884204D247492F
:10022000595899500433F5E7454A464B9A424FF0E6
:10023000000302D242F8043BF7E74349434A5958C6
:1002400099500433B3F5DE7FF7D1414B802103F899
:10025000011B40498B42F9D13F4B1A603F4B0A22A8
:100260001A70A3F5805324225A70A0221A709A792A
:100270009207FCD59A79D406FCD4394B9A7902F0CE
:100280000C02082AF9D105221A7143225A719A796F
:100290009006FCD5324B9A795106FBD5314A4FF086
:1002A000817111600521516020221A702C4B9B79BD
:1002B00003F00C030C2BF9D12B4B2C4A1A602C4B5E
:1002C0002C4A1A6000225A60072243F8042C2A4A5A
:1002D000C3F80C2D62B602F0F7FB134B1B68DA076C
:1002E00005D5264802F0E4F9254B264A1A60264B2C
:1002F0001B785B0609D5224C224A2368934204D11D
:100300001E4802F0D5F90023236003F0AFFA02F093
:10031000ADF900F0EDF8FEE70E2005403080044016
:10032000823F04000100002B14D0034002D007409C
:1003300000E00740609FFF1F10A0FF1F9C3B0000D4
:1003400010A0FF1F38BBFF1F00000000009AFF1F16
:1003500000E400E05FE400E008ED00E0005006404B
:10036000004006404480044004800440C010050062
:1003700014E000E03F19010000002020B9AF9857B9
:100380001CE00340A5C3945A00F00740FFFFFFFFA5
:10039000FFFFFFFFFFFFFFFFFFFFFFFFFFFFFFFF6D
:1003A000FFFFFFFFFFFFFFFFFFFFFFFFFFFFFFFF5D
:1003B000FFFFFFFFFFFFFFFFFFFFFFFFFFFFFFFF4D
:1003C000FFFFFFFFFFFFFFFFFFFFFFFFFFFFFFFF3D
:1003D000FFFFFFFFFFFFFFFFFFFFFFFFFFFFFFFF2D
:1003E000FFFFFFFFFFFFFFFFFFFFFFFFFFFFFFFF1D
:1003F000FFFFFFFFFFFFFFFFFFFFFFFFFFFFFFFF0D
:10040000FFFFFFFFFFFFFFFFFFFFFFFFFEFFFFFFFD
:1004100010B5054C237833B9044B13B10448AFF33E
:1004200000800123237010BD10A0FF1F00000000FA
:100430009C3B000008B5064B1BB106480649AFF3CC
:1004400000800648036813B1054B03B1984708BD07
:10045000000000009C3B000014A0FF1F10A0FF1F25
:100460000000000010B5044C204602F06BFF20464F
:10047000BDE8104003F09CB830B8FF1F70B500F025
:10048000A3F80228FBDD00F05DF8064600F05AF8FC
:10049000054600F057F8EDB2094CF6B22D02C3B292
:1004A00045EA0642074821681A4303F0E1F8236849
:1004B000044801332360BDE8704003F079B800BF01
:1004C0002CA0FF1F30B8FF1F07B5022300934FF485
:1004D0008071044A044B054802F020FF03B05DF828
:1004E00004FB00BF0082FF1F30A0FF1F30B8FF1FBA
:1004F00008B5FFF7B7FFFFF7C1FF00F039F9FAE7DA
:1005000001B5EAB1102A17DB00F0070333B1C3F1DC
:100510000803D21A013B00F8011BFBDCC9B241EA17
:10052000012141EA01418C46D308013BE0E8021C6D
:10053000FBDC12F0070203D0013A00F8011BFBDCE0
:1005400001BD00BF10B5104C23686BB12068428814
:10055000531C0244147A0288934212D302F038F8F2
:10056000094B00221A600DE0084B1B7813B94FF0BD
:10057000FF3010BD032001F007FC20600028E5D10A
:10058000F5E74380204610BD3CB8FF1FD7BAFF1FD8
:1005900010B50B4C236813B123686BB902E0094B0B
:1005A0001B7813B94FF0FF3010BD032001F0ECFBB6
:1005B00020600028F0D1F5E75A881344187A10BD5E
:1005C0003CB8FF1FD7BAFF1F044B9888044B1B6829
:1005D0001BB11A885B88D31A1844704730BBFF1FC1
:1005E0003CB8FF1F2DE9F8432D4E012307460C466A
:1005F0003370002C4FD02B4D2B68A9462BBB48F6EF
:100600000148294B1B7803F0FF020BB9327015E04B
:10061000042001F0D5FB072808D80123337001F02E
:10062000B9FFC9F8000080B91D4B1870B8F1010876
:100630001E4B01D01A782AB101221A704FF0FF30F8
:10064000BDE8F88300F094F8DBE72968174A48888A
:1006500000231370C0F14002944238BF224600F1DB
:10066000080C10448C444880A41A934204D0F85CCF
:100670000CF803000133F8E71F444B883F2B06D9E1
:1006800040230B80042001F0E9FB00232B60084B82
:1006900005221A70ADE734702046BDE8F88300BF2C
:1006A00032B8FF1F34B8FF1FD7BAFF1F38B8FF1F7B
:1006B00031B8FF1F07B502AB012103F8010D184641
:1006C000FFF790FF03B05DF804FBFFFF2DE9F04159
:1006D000114B1B78F3B1114E114B3468114D0127AA
:1006E0001F7098464CB1002763882F700420238028
:1006F000214601F0B3FB376009E001F04BFF0146F2
:1007000020B104202C7001F0A9FB00E02F70002321
:1007100088F80030BDE8F081D7BAFF1F34B8FF1F5A
:1007200032B8FF1F31B8FF1F38B50E4B1B7803F0EE
:10073000FF05ABB90C4C216831B14B880B8004200C
:1007400001F08CFB256038BD01F024FF014620B18B
:100750000420BDE8384001F081BB044B01221A702F
:1007600038BD00BF32B8FF1F34B8FF1F31B8FF1FBC
:1007700010B50E4C2378BBB901232370FFF724FF7B
:1007800008B101F0F8FE00F07DFC08B100F089F836
:1007900000F0A4FF08B100F00CF901F009FA08B16B
:1007A00000F08FF90023237010BD00BF41B8FF1F78
:1007B00008B50368C9B21B68984708BD08B5036847
:1007C000C9B21B68984708BD08B50368C9B21B6861
:1007D000984708BD08B50368C9B21B68984708BDAB
:1007E000034800EB5100B0FBF1F000F013BA00BF7A
:1007F0000044950810B5064800EB51001446B0FBC4
:10080000F1F000F007FA2046BDE8104000F066BAAB
:100810000044950800F08CBA084600F0BDBA0846BE
:1008200000F0FEBA084600F0D3BA08B5084600F05A
:100830001DFB003018BF012008BD08B5084600F0B8
:1008400037FB003018BF012008BD00F01BBC00F0D2
:1008500053BC00F027BC00F0F9BB00F065BC00F011
:10086000FFBB08B5084600F049FB012008BD08B5EC
:10087000084600F043FB012008BD10B508461446A9
:10088000114600F085FB204610BD38B508460D46E0
:1008900003F012F804462146284600F079FB204672
:1008A00038BD7047044B00221A714FF47A711A73E5
:1008B000024A99601A60704744B8FF1FD0380000A0
:1008C00008B50368C9B21B68984708BD08B5036836
:1008D000C9B21B68984708BD08B50368C9B21B6850
:1008E000984708BD08B50368C9B21B68984708BD9A
:1008F000034800EB5100B0FBF1F000F0BDBC00BFBD
:100900000044950810B5064800EB51001446B0FBB2
:10091000F1F000F0B1FC2046BDE8104000F010BD41
:100920000044950800F036BD084600F067BD084653
:1009300000F0A8BD084600F07DBD08B5084600F0EF
:10094000C9FD003018BF012008BD08B5084600F0F9
:10095000E3FD003018BF012008BD00F0BFBE00F06D
:10096000F7BE00F0CBBE00F09DBE00F009BF00F066
:10097000A3BE08B5084600F0EDFD012008BD08B58E
:10098000084600F0E7FD012008BD10B508461446F2
:10099000114600F029FE204610BD38B508460D4628
:1009A00002F08AFF04462146284600F01DFE20463C
:1009B00038BD7047044B00221A714FF47A711A73D4
:1009C000024A99601A60704754B8FF1F303900001E
:1009D00008B50368C9B21B68984708BD08B5036825
:1009E000C9B21B68984708BD08B50368C9B21B683F
:1009F000984708BD08B50368C9B21B68984708BD89
:100A0000034800EB5100B0FBF1F000F061BF00BF04
:100A100000A24A0410B5064800EB51001446B0FB92
:100A2000F1F000F055FF2046BDE8104000F092BF05
:100A300000A24A0400F0B8BF084600F0E9BF08462B
:100A400001F003B8084600F0FFBF08B5084600F003
:100A5000FDFF003018BF012008BD08B5084601F0B1
:100A600017F8003018BF012008BD01F0A1B801F04F
:100A7000D9B801F0ADB801F07FB801F0EBB801F0E2
:100A800085B808B5084601F021F8012008BD08B571
:100A9000084601F01BF8012008BD10B508461446B1
:100AA000114601F05DF8204610BD38B508460D46E8
:100AB00002F002FF04462146284601F051F8204684
:100AC00038BD7047044B00221A714FF47A711A73C3
:100AD000024A99601A60704764B8FF1F903900009D
:100AE000844641EA000313F003036DD1403A41D339
:100AF00051F8043B40F8043B51F8043B40F8043BF8
:100B000051F8043B40F8043B51F8043B40F8043BE7
:100B100051F8043B40F8043B51F8043B40F8043BD7
:100B200051F8043B40F8043B51F8043B40F8043BC7
:100B300051F8043B40F8043B51F8043B40F8043BB7
:100B400051F8043B40F8043B51F8043B40F8043BA7
:100B500051F8043B40F8043B51F8043B40F8043B97
:100B600051F8043B40F8043B51F8043B40F8043B87
:100B7000403ABDD2303211D351F8043B40F8043B27
:100B800051F8043B40F8043B51F8043B40F8043B67
:100B900051F8043B40F8043B103AEDD20C3205D337
:100BA00051F8043B40F8043B043AF9D2043208D02F
:100BB000D2071CBF11F8013B00F8013B01D30B88A1
:100BC00003806046704700BF082A13D38B078DD07F
:100BD00010F003038AD0C3F10403D21ADB071CBF51
:100BE00011F8013B00F8013B80D331F8023B20F8BB
:100BF000023B7BE7043AD9D3013A11F8013B00F8F4
:100C0000013BF9D20B7803704B7843708B7883707B
:100C100060467047234B1A6842F480621A60224A89
:100C200000231370214A1370214A1370214A137054
:100C3000214A1370214B1B782BB1152B07D140F2A1
:100C400013321F4B02E01F4B40F213321A601E4B4F
:100C50001B78012B05D0052B07D14FF451721B4B8C
:100C600002E01B4B4FF451721A601A4BC0F344322E
:100C70001A70C0F347125A700221042200F01F00BC
:100C800098729A70D9745A7588221A743C22DA7054
:100C9000114B40226FF44A711A700B444FF400520A
:100CA0001A60704734800440FBB8FF1F79B8FF1FFB
:100CB00004B9FF1FFCB8FF1F78B8FF1FBAB8FF1FA9
:100CC00018C0044040A00440649FFF1F1CC00440A3
:100CD00044A0044000A006402DE400E0134A9378AD
:100CE00000F0030103F0EC030B43410748BF43F05E
:100CF0001003937000F00F03042B0C4903D18B7980
:100D000043F040038B715379C20603F0EF03074AA7
:100D100048BF43F0100353719379810603F0EF034A
:100D200048BF43F010039371704700BF00A0064016
:100D300008B5114B1B685B0500D408BD0F4B1A7832
:100D400002F0FF0312B1FFF713FDF7E70C4A4FF46F
:100D5000005111600B4A0C49D37040F203120A6033
:100D60004A600A4A13700A4A13700A4B1B680BB197
:100D700001221A7008BD00BF3480044078B8FF1FFC
:100D800084E100E000A0064040A00440FBB8FF1F43
:100D900079B8FF1F74B8FF1F38B50446094B1B789C
:100DA00003F0FF05002BF9D12046012101F034FDAD
:100DB0002046294601F010FD034B53F83420034B25
:100DC0001A6038BD78B8FF1F083A000000B9FF1F4D
:100DD0000F4A137898421AD00E490968490515D56B
:100DE000012B04D0052B05D100210B4B01E00B4B4F
:100DF00000211960012805D0052807D14FF4517151
:100E0000054B02E0054B4FF45171196010707047AB
:100E1000649FFF1F348004401CC0044044A0044071
:100E20000E4A1378984218D00D490968490513D520
:100E30002BB1152B05D10B4B0021196001E00A499C
:100E40000B6028B1152807D140F21331054B02E0A1
:100E5000054B40F21331196010707047BAB8FF1F8C
:100E60003480044018C0044040A004400D4A38B506
:100E7000146814F480624FF0000410D021280A4D49
:100E80000AD80A4A012152F830302B6001F0C4FC24
:100E90002B681C70012038BD2C60204638BD1046E0
:100EA00038BD00BF3480044074B8FF1F083A00000A
:100EB0000E4B1B6813F4806316D012280C4B03D121
:100EC00040F202310B4A04E0142809D10A4A40F2E8
:100ED000023111605A7B42F001025A7301207047BF
:100EE0005A7B02F0FE025A7300207047348004409F
:100EF00000A006400CA0044014C00440F8B51D4BEF
:100F00001B685A05064633D51B4B1B680BB10122E3
:100F10001A701A4B1C780134402C1F4628BF00243D
:100F2000174D2B78A34218D101F0A2FB40280FDC0B
:100F3000144A13791B06F3D52B7813490133402B40
:100F400028BF0023C95CDBB2C9B2D1712B70E7E7BF
:100F5000FF28E5DDFFF70CFCE2E70B4BF6B21E5570
:100F60000A4B01221A70074BE4B2BC223C70DA70C3
:100F7000F8BD00BF3480044000B9FF1F04B9FF1F53
:100F8000FCB8FF1F00A006407AB8FF1F78B8FF1F0B
:100F9000274B1B685A052DE9F04707468A4644D57A
:100FA000244B1B680BB101221A703D4607EB0A0364
:100FB0009D4237D2DFF890801F4E98F8004096F897
:100FC00000900134402C28BF00245FFA89F9A14524
:100FD0001DD11A4BBC22DA7001F04AFB40280FDC0D
:100FE000164A13791B060FD5337815490133402B68
:100FF00028BF0023C95CDBB2C9B2D171337003E0F2
:10100000FF2801DDFFF7B4FB33784B45E4D00C4BF0
:1010100015F8012B1A550B4B0122E4B21A7088F80F
:101020000040C3E7054BBC22DA70BDE8F08700BF83
:101030003480044000B9FF1FFCB8FF1F00A0064029
:101040007AB8FF1F78B8FF1F04B9FF1F08B5034B1C
:101050001B7813B1FFF78CFBF9E708BD78B8FF1FC9
:10106000064A074B1B781078DBB2C0B283422CBF14
:101070003F3000F1FF30C01A704700BFFCB8FF1FBF
:1010800004B9FF1F054B1878054B1B78C0B2DBB2C3
:10109000984238BF4030C01A704700BFFBB8FF1FEE
:1010A00079B8FF1F10B5104B10491A780B78D2B2DF
:1010B000DBB29A4214D00133402B28BF00230C48E6
:1010C000DCB2C05C0C700B490968C0B251B19A42E5
:1010D00038BF4032D31A1A2B04DC00230B7010BD2A
:1010E0004FF0FF3010BD00BFFBB8FF1F79B8FF1FE6
:1010F000BBB8FF1F74B8FF1F084B1A78084B1B784A
:10110000DBB29A4207D00133402B28BF0023054AA7
:10111000D05CC0B270474FF0FF307047FBB8FF1F84
:1011200079B8FF1FBBB8FF1F0C4B1B685B0514D5BC
:101130000B4BDA7802F0CB02DA7040225A74DA787C
:1011400042F03402DA70074B1A78074BD2B21A70A9
:10115000064B1B680BB100221A70704734800440A4
:1011600000A0064079B8FF1FFBB8FF1F74B8FF1F2F
:1011700030B5374B1A7912F0300F31D072B69A7DF4
:1011800002F0FF0022B9DA7940225A7462B627E0F1
:1011900062B6304A304913780978DBB2C9B21446D6
:1011A0002B4AD5795A1C402A28BF00228A42EDB228
:1011B00002D02A4B9D541346421E12F0FF00EFD17D
:1011C000DAB22270264A126852B18B4236BFC1F1A0
:1011D0004001C1EB03035B18272BC4BF012313702D
:1011E0001B4BD978C9B20C0620D51B7918061DD522
:1011F0001C4B1D4A1D781378EDB2DBB21046AB4292
:101200000CD0134A0133402B1479184C28BF00230B
:10121000E45CE4B2D471127D072AF0D9DBB203702A
:101220000B4B1A79120644BF7C22DA704B060ED59E
:10123000074B1A7912F0400F194608D00C4B0022C8
:101240001A700C4B1B6803B11A703C23CB7030BD75
:1012500000A00640FBB8FF1F79B8FF1FBBB8FF1FF7
:1012600074B8FF1F04B9FF1FFCB8FF1F7AB8FF1F37
:1012700078B8FF1F00B9FF1F234B1A6842F40062C1
:101280001A60224A00231370214A1370214A1370F6
:10129000214A1370214A1370214B1B78092B05D06A
:1012A0001A2B07D140F213321E4B02E01E4B40F2C4
:1012B00013321A601D4B1B780A2B05D01F2B07D148
:1012C0004FF451721A4B02E01A4B4FF451721A60EC
:1012D000194BC0F344321A70C0F347125A7000F031
:1012E0001F000422022198729A70D9745A758822BC
:1012F0001A743C22DA70114B40221A70A3F22B337D
:101300004FF400421A6070473480044076B9FF1FE2
:101310000DB9FF1F7CB9FF1F77B9FF1F0CB9FF1F65
:10132000659FFF1F04D004400CB00440669FFF1F60
:1013300000D0044010B0044000B006402FE400E0AC
:10134000134A937800F0030103F0EC030B434107C9
:1013500048BF43F01003937000F00F03042B0C49B7
:1013600003D18B7943F040038B715379C20603F0AC
:10137000EF03074A48BF43F0100353719379810686
:1013800003F0EF0348BF43F010039371704700BFB1
:1013900000B0064008B5114B1B681B0500D408BD02
:1013A0000F4B1A7802F0FF0312B1FFF7E1F9F7E7EC
:1013B0000C4A4FF4004111600B4A0C49D37040F2C3
:1013C00003120A604A600A4A13700A4A13700A4BF1
:1013D0001B680BB101221A7008BD00BF34800440A5
:1013E0000CB9FF1F84E100E000B006400CB00440DF
:1013F00076B9FF1F0DB9FF1F08B9FF1F38B50446A6
:10140000094B1B7803F0FF05002BF9D12046012181
:1014100001F002FA2046294601F0DEF9034B53F8A9
:101420003420034B1A6038BD0CB9FF1F083A000086
:1014300078B9FF1F0F4A137898421AD00E490968ED
:10144000C90415D50A2B04D01F2B05D100210B4B45
:1014500001E00B4B002119600A2805D01F2807D195
:101460004FF45171054B02E0054B4FF45171196077
:1014700010707047669FFF1F3480044000D0044006
:1014800010B004400F4A137898421AD00E490968E8
:10149000C90415D5092B04D01A2B05D100210B4BFB
:1014A00001E00B4B00211960092805D01A2807D14B
:1014B00040F21331054B02E0054B40F21331196045
:1014C00010707047659FFF1F3480044004D00440B3
:1014D0000CB004400D4A38B5146814F400624FF0A3
:1014E000000410D021280A4D0AD80A4A012152F8D6
:1014F00030302B6001F090F92B681C70012038BD52
:101500002C60204638BD104638BD00BF34800440F2
:1015100008B9FF1F083A00000B4B1B6813F4006367
:1015200010D01728094B09D1094A40F20231116045
:101530005A7B42F001025A73012070475A7B02F035
:10154000FE025A73002070473480044000B0064009
:1015500008B00440F8B51D4B1B681A05064633D584
:101560001B4B1B680BB101221A701A4B1C780134FB
:10157000282C1F4628BF0024174D2B78A34218D1D2
:1015800001F076F840280FDC144A13791B06F3D5D6
:101590002B7813490133282B28BF0023C95CDBB209
:1015A000C9B2D1712B70E7E7FF28E5DDFFF7E0F85E
:1015B000E2E70B4BF6B21E550A4B01221A70074B9D
:1015C000E4B2BC223C70DA70F8BD00BF3480044045
:1015D00078B9FF1F7CB9FF1F77B9FF1F00B0064025
:1015E0000EB9FF1F0CB9FF1F274B1B681A052DE909
:1015F000F04707468A4644D5244B1B680BB10122AD
:101600001A703D4607EB0A039D4237D2DFF89080FF
:101610001F4E98F8004096F800900134282C28BFFF
:1016200000245FFA89F9A1451DD11A4BBC22DA705A
:1016300001F01EF840280FDC164A13791B060FD55F
:10164000337815490133282B28BF0023C95CDBB24E
:10165000C9B2D171337003E0FF2801DDFFF788F8CC
:1016600033784B45E4D00C4B15F8012B1A550B4B36
:101670000122E4B21A7088F80040C3E7054BBC228F
:10168000DA70BDE8F08700BF3480044078B9FF1FEE
:1016900077B9FF1F00B006400EB9FF1F0CB9FF1F3E
:1016A0007CB9FF1F08B5034B1B7813B1FFF760F837
:1016B000F9E708BD0CB9FF1F064A074B1B781078E5
:1016C000DBB2C0B283422CBF273000F1FF30C01A1A
:1016D000704700BF77B9FF1F7CB9FF1F054B187813
:1016E000054B1B78C0B2DBB2984238BF4030C01AFD
:1016F000704700BF76B9FF1F0DB9FF1F10B5104B23
:1017000010491A780B78D2B2DBB29A4214D0013366
:10171000402B28BF00230C48DCB2C05C0C700B4986
:101720000968C0B251B19A4238BF4032D31A1A2B5D
:1017300004DC00230B7010BD4FF0FF3010BD00BF64
:1017400076B9FF1F0DB9FF1F36B9FF1F08B9FF1F7C
:10175000084B1A78084B1B78DBB29A4207D001334A
:10176000402B28BF0023054AD05CC0B270474FF021
:10177000FF30704776B9FF1F0DB9FF1F36B9FF1F45
:101780000C4B1B681B0514D50B4BDA7802F0CB020F
:10179000DA7040225A74DA7842F03402DA70074B79
:1017A0001A78074BD2B21A70064B1B680BB1002295
:1017B0001A7070473480044000B006400DB9FF1F16
:1017C00076B9FF1F08B9FF1F30B5374B1A7912F0F1
:1017D000300F31D072B69A7D02F0FF0022B9DA796B
:1017E00040225A7462B627E062B6304A3049137814
:1017F0000978DBB2C9B214462B4AD5795A1C402A63
:1018000028BF00228A42EDB202D02A4B9D541346D3
:10181000421E12F0FF00EFD1DAB22270264A12689F
:1018200052B18B4236BFC1F14001C1EB03035B18DB
:10183000272BC4BF012313701B4BD978C9B20C06E8
:1018400020D51B7918061DD51C4B1D4A1D78137811
:10185000EDB2DBB21046AB420CD0134A0133282B59
:101860001479184C28BF0023E45CE4B2D471127DD3
:10187000072AF0D9DBB203700B4B1A79120644BF6A
:101880007C22DA704B060ED5074B1A7912F0400F06
:10189000194608D00C4B00221A700C4B1B6803B180
:1018A0001A703C23CB7030BD00B0064076B9FF1FE4
:1018B0000DB9FF1F36B9FF1F08B9FF1F7CB9FF1F05
:1018C00077B9FF1F0EB9FF1F0CB9FF1F78B9FF1FB3
:1018D000174B1A6842F480521A60164A002313709C
:1018E000154A1370154A1370154A1370154A137070
:1018F000154A40F2133111604FF451715160134A8F
:10190000C0F344311170C0F3471100F01F00517053
:101910009072937013742C23D3700D4B40226FF48C
:101920004B711A700B444FF400321A60704700BFBD
:1019300034800440EEB9FF1F85B9FF1FF4B9FF1FC3
:10194000EFB9FF1F84B9FF1F08C0044000C0064064
:1019500031E400E0134A937800F0030103F0EC0354
:101960000B43410748BF43F01003937000F00F038F
:10197000042B0C4903D18B7943F040038B715379CD
:10198000C20603F0EF03074A48BF43F01003537148
:101990009379810603F0EF0348BF43F0100393717E
:1019A000704700BF00C0064008B5114B1B68DB0440
:1019B00000D408BD0F4B1A7802F0FF0312B1FEF7F6
:1019C000D7FEF7E70C4A4FF4003111600B4A0C497F
:1019D000D37040F203120A604A600A4A13700A4A3E
:1019E00013700A4B1B680BB101221A7008BD00BFAF
:1019F0003480044084B9FF1F84E100E000C0064049
:101A000008C00440EEB9FF1F85B9FF1F80B9FF1F52
:101A100038B50446094B1B7803F0FF05002BF9D1BC
:101A20002046012100F0F8FE2046294600F0D4FEB1
:101A3000034B53F83420034B1A6038BD84B9FF1FA1
:101A4000083A0000F0B9FF1F704770470D4A38B5DB
:101A5000146814F480524FF0000410D021280A4D6D
:101A60000AD80A4A012152F830302B6000F0D4FE27
:101A70002B681C70012038BD2C60204638BD1046F4
:101A800038BD00BF3480044080B9FF1F083A000011
:101A90000B4B1B6813F4805310D00E28094B09D14F
:101AA000094A40F2023111605A7B42F001025A7336
:101AB000012070475A7B02F0FE025A7300207047E3
:101AC0003480044000C0064004C00440F8B51D4BFB
:101AD0001B68DA04064633D51B4B1B680BB1012289
:101AE0001A701A4B1C780134282C1F4628BF00247A
:101AF000174D2B78A34218D100F0BAFD40280FDC17
:101B0000144A13791B06F3D52B7813490133282B7C
:101B100028BF0023C95CDBB2C9B2D1712B70E7E7E3
:101B2000FF28E5DDFEF724FEE2E70B4BF6B21E557B
:101B30000A4B01221A70074BE4B2AC223C70DA70F7
:101B4000F8BD00BF34800440F0B9FF1FF4B9FF1F97
:101B5000EFB9FF1F00C0064086B9FF1F84B9FF1F01
:101B600038B504464518AC4204D014F8010BFFF711
:101B7000ADFFF8E738BDFFFF08B5034B1B7813B185
:101B8000FEF7F6FDF9E708BD84B9FF1F064A074BCB
:101B90001B781078DBB2C0B283422CBF273000F133
:101BA000FF30C01A704700BFEFB9FF1FF4B9FF1F25
:101BB000054B1878054B1B78C0B2DBB2984238BF92
:101BC0004030C01A704700BFEEB9FF1F85B9FF1F34
:101BD00010B5104B10491A780B78D2B2DBB29A428A
:101BE00014D00133402B28BF00230C48DCB2C05C6A
:101BF0000C700B490968C0B251B19A4238BF4032EB
:101C0000D31A1A2B04DC00230B7010BD4FF0FF30E9
:101C100010BD00BFEEB9FF1F85B9FF1FAEB9FF1F92
:101C200080B9FF1F084B1A78084B1B78DBB29A4229
:101C300007D00133402B28BF0023054AD05CC0B237
:101C400070474FF0FF307047EEB9FF1F85B9FF1F97
:101C5000AEB9FF1F054B1A78054BD2B21A70054B6F
:101C60001B680BB100221A70704700BF85B9FF1FB7
:101C7000EEB9FF1F80B9FF1F10B5294B1A799206E4
:101C800020D5284AD879137827490133402B097881
:101C900028BF00238B42C0B203D02449C854D9B214
:101CA0001170234A116869B1224A1278D2B2934264
:101CB00036BFC2F14002C2EB03039B18272BC4BFFF
:101CC00001230B70164AD178C9B20C0616D51379C8
:101CD000180613D5184B17481C780378DBB29C42C2
:101CE00002D16C23D37009E00133282B28BF0023D5
:101CF000124CE45CDBB2E4B2D47103704B060ED537
:101D0000074B1A7912F0400F194608D00C4B0022ED
:101D10001A700C4B1B6803B11A702C23CB7010BDCA
:101D200000C00640EEB9FF1F85B9FF1FAEB9FF1F07
:101D300080B9FF1FEFB9FF1FF4B9FF1F86B9FF1F5E
:101D400084B9FF1FF0B9FF1FF0B50C4B0C4C1A788B
:101D500042F0020504EBC50682F0010270600948FA
:101D60001A700678002E0CBF8827C82786F0010657
:101D700047EA0141067044F83510F0BD60BAFF1F14
:101D80000080FF1FD8BAFF1F431E032B10B510D8C9
:101D900072B6094A52F8230048B1416842F823104C
:101DA000064A018832F81340611A22F8131062B60D
:101DB00010BD002010BD00BF50BAFF1F30BBFF1F79
:101DC000013803280AD872B6054B53F8203000209A
:101DD00013B101305B68FBE762B6704700207047C3
:101DE000A4BAFF1F10B572B60123174A1A4412F89D
:101DF000012C12071CD59900144A52F831402CB915
:101E000002EB431308305860114B09E041F0010127
:101E100052F8314064B902EBC103083058600D4BF1
:101E200042F831300C4B1A78013A1A7062B610BD84
:101E30000133052BD9D162B6074B00221A70BDE8D9
:101E4000104000F0C5BB00BF183B00000080FF1F22
:101E500088004000C8004000CEBAFF1F431E032B7D
:101E600030B532D8194A400140F01000104472B623
:101E7000174CE25C032A09D8DFE802F016021805C5
:101E80000830022213E00830042210E01148124A00
:101E900050F8234014B940F8231002E052F8230010
:101EA000416042F823100FE0032200E00522E254D3
:101EB00010F0080F01F108030A8843600CBF882363
:101EC000C82343EA0243036062B630BD0080FF1FAF
:101ED0000CBAFF1FA4BAFF1FB4BAFF1F2DE9F84FB9
:101EE000AB4F3C78E4B214F0040F3D4619D0A94B37
:101EF0001B78A3B1A84A117801F0FF0321B1013B7F
:101F0000DBB2137003B900BEA44A117801F0FF03DD
:101F100029B1013BDBB213700BB9FEF705FC0423BA
:101F20003B7004F0080303F0FF02002B00F067820F
:101F30009B4B9C4C1A78D2B215094FEA920840F09C
:101F4000E48104EBC803596854F83830C3F38303C1
:101F5000013B0C2B00F2D681DFE813F095019501CF
:101F6000D401D401D401D401D401D401B001D401ED
:101F7000D401D4010D008C4D0A684B688B486B600E
:101F800001218B4B44F838302A60DFF85082017011
:101F900092B240F2816000238242C8F8003023618F
:101FA000A36117D8B2F5D06F80F01E81B2F5817FA2
:101FB00000F0CF8006D8802A00F0BA80822A00F094
:101FC000BB8031E140F202339A4200F0D180B2F599
:101FD000A06F1CE042F22100824200F051810ED835
:101FE000B2F5086F00F09E80B2F5106F40F01C81D2
:101FF000684B6C4EAA781A7006F180090AE042F22A
:1020000021218A4200F0088142F221339A4200F0F5
:102010000F8109E1336A1B0603D5706A083800F0A6
:10202000D7FA08364E45F5D10026B146DFF8B0A103
:1020300056F80A0028B1D0F804B000F0C9FA5846A2
:10204000F8E74AF806005B4BDFF898A1F05056F825
:102050000A0028B1D0F804B000F0BAFA5846F8E700
:10206000554B4AF80600F050544B23F81900544BD6
:1020700019F80320023A032A08D8DFE802F0020424
:102080000204002200E0012203F8092009F10109FD
:10209000B9F1040F06F10406C8D14A4B00221A70A8
:1020A00001269A46484A494B3244334412F8012CDF
:1020B0009B0012F0080F1A704FEA860925D000F035
:1020C00069FA38B104EB461308305860404B44F8C5
:1020D000393006E09AF8003044F8390001338AF8C4
:1020E000003000F057FA49F0010338B104EBC302A5
:1020F000083050602E4A44F8332006E044F833009C
:102100009AF8003001338AF8003049F002020136B3
:1021100049F003090023052E44F8323044F83930E1
:10212000C0D186E01B4B2B4C1B7823700B4683E001
:10213000284C237063707EE0AA88042A74D8254C4A
:10214000920023706370244B9B5C9E0773D52170B3
:1021500071E0AA8802F07F02042A65DC6B88002BFC
:1021600062D191001C4A0A44117821F0020159E021
:10217000AA8802F07F02042A56DC6B88002B53D118
:102180009100154A0A44117841F002014AE000BF6B
:1021900080200740D7BAFF1F61BAFF1F31B8FF1F69
:1021A000902007400080FF1FC4BAFF1FD8BAFF1F4E
:1021B000C8004000FCB9FF1FB4BAFF1F30BBFF1FAF
:1021C0000CBAFF1FCEBAFF1F183B000030C8011029
:1021D00088004000CFBAFF1FC0200740F8B9FF1F9A
:1021E00050BAFF1FA4BAFF1F6A88A9889F4B53F8F3
:1021F000084CA3F10C00BCB133F80C6C964209D129
:1022000033F80A6C8E4205D1120A032A0CBF2378D8
:10221000038911E00C33EAE7954A1168954A116089
:10222000A978954A117004E0944B0F221A7027E0A8
:1022300000231C4600E00223EE88B34238BF1E464E
:10224000402E34BF3546402520462946FFF77CFD09
:10225000761B2C4403D1402D12D1354603E0402E8D
:1022600034BF3546402520462946FFF76DFD761BD5
:102270002C4401D1402D03D1814AC8F8004016807A
:102280000122804B3DE0804B1A8842F221039A42A2
:1022900010D100237D4AC85C98540133072BF9D133
:1022A0001368862B02D17A4B0F221A700020014648
:1022B000FFF74AFD774B44F8383023E0764E356817
:1022C000B5B1DFF8BC81B8F80090B9F1400F34BF68
:1022D0004C46402428462146FFF736FDC4EB09034F
:1022E0009BB2A8F800300BB9402C00D12B193360F9
:1022F000654B1A88B2F5A06F04D100225A709A7803
:10230000664B1A7001225F4B6CE004EBC806013D7E
:10231000736802F00802A3F10800EDB202F0FF01B9
:10232000002A36D000F054F95D485E4B50F8252065
:10233000EAB1516840F8251002F108017160595D59
:1023400003290BD8DFE801F002040608032104E0AA
:10235000022102E0052100E00421595516F0080F82
:1023600012880CBF8823C82343EA024342E05A5D27
:10237000032A07D8DFE802F040400204002206E00A
:10238000012204E016F0080F0CBF022203225A5566
:1023900032E054F83820120C23F8082C22B3DFF86E
:1023A00034E123F8061C43F8041C5EF825303E494E
:1023B00013B94EF8250002E051F8253058603B4B28
:1023C00041F8250033F815100A4423F8152000F0D1
:1023D000E1F810B10830706006E0354B44F8380081
:1023E0001A7801321A7007E02A4B324A16F0080FA9
:1023F00008BF134644F8383008233B7070E5E00707
:102400001FD520492B482C4C02230B702B4B1A70E4
:102410002B4B186098602B48D8601A619A615C60F9
:10242000164B0D2018702848FF2303702B70027480
:10243000264A1370264B9F221A7001230B70BDE8A9
:10244000F88F210604D50D4B0D221A7080232B70B6
:10245000A20705D51C4B1A78D2B21A7002232B7032
:10246000E30644BF10232B70BDE8F88F283B000023
:10247000ECBAFF1F2CBBFF1F40B8FF1FC020074056
:10248000CCBAFF1F94200740C4BAFF1F24BBFF1F14
:1024900061BAFF1FC8004000F8B9FF1F982007402D
:1024A000A4BAFF1F0CBAFF1FFCB9FF1F30BBFF1FF0
:1024B000CEBAFF1F8800400010BAFF1F60BAFF1F8E
:1024C0000080FF1F64BAFF1F882007408C20074050
:1024D0008420074050BAFF1F08B500F043FB0022DC
:1024E0001A4B0021D15098180832882A4160F7D140
:1024F000174A106840F48020106002F528326832D4
:10250000C3F307201070C3F307401B0E107513763A
:10251000FF2302F81C3C02F8143C02F88C3C012317
:1025200002F8083C82F8641002F8183C094B70224B
:102530006FF450711A700B444FF400721A6003F17B
:10254000C04303F5C82310221A7008BD0080FF1F86
:102550003480044049E400E0FEF736B8FDF7F2BFEE
:10256000FEF716B8FEF7B2B80846FEF7A3B808465D
:102570001146FEF737B87047044B00221A714FF42A
:102580007A711A73024A99601A607047DCBAFF1FA9
:10259000F039000072B60C4A1168B1FA81F30B2BC6
:1025A00002D962B6002070474FF00040D84021EABF
:1025B0000001116062B6054948225343C818002241
:1025C000CA504260704700BF689FFF1F009CFF1FFA
:1025D0000C4B4822C31AB3FBF2F30B2B11D80A4A57
:1025E000127822B1094A12780AB1FFF7FBBB72B622
:1025F000074A4FF0004121FA03F3116819431160B3
:1026000062B67047009CFF1FCEBAFF1FD7BAFF1FEC
:10261000689FFF1F024B1A6801321A60704700BFA3
:10262000ECBAFF1F08B50B4C2368580301D5FFF720
:1026300055FC2368590501D5FEF79AFD23681A0554
:1026400001D5FFF7C1F82368DB04ECD5FFF714FBD5
:10265000E9E700BF3480044008B5FFF7E3FFFFFF60
:10266000014B10221A807047002005407047FFFF81
:10267000EFF31383ABB9EFF31083ABB9EFF305833B
:1026800023B10F2B05D9094A985C03E04FF4807001
:1026900000E00020EFF311833BB1834238BF1846BE
:1026A00070474FF0FF30704700207047F0E300E0C4
:1026B000044B054900221A600A60044A1060102287
:1026C0001A60704714D0034004D0034000D0034088
:1026D00018B1102828BF102000E00120014B18700D
:1026E000704700BF6C9FFF1F2DE9F04105460E4665
:1026F00008462E4900F0AEFD2D4B002847F6122863
:1027000014BF0227012708BF9846002428FA04F0C6
:1027100000F0AAFB4FF05E5100F0FEFB0146304690
:1027200000F0ACFD10B90134072CEFD128FA04F009
:1027300000F09AFB314600F0A3FC4FF07C5100F012
:10274000E1FA00F0AFFD4FF6FF73984228BF18463C
:10275000EB1E012B06D8174B174900221A600A609E
:10276000164A1BE0A5F10903012B06D9A5F11403B4
:10277000032B02D96B1F012B06D8114B11490022E4
:102780001A600A60104A09E0202D01D0192D0BD1E2
:102790000E4B0F4900221A600A600E4A04F007042B
:1027A00044EAC70710601F60BDE8F08140548940CB
:1027B000005125020090034004900340089003401C
:1027C00000800340048003400880034000800B40E9
:1027D00004800B4008800B40212810B518D80D4A02
:1027E00052F8303093F880423CB1012211B183F8A5
:1027F000802010BD83F8002110BD02EBC0004368AB
:102800001A6811B142F0030201E022F002021A60DC
:1028100010BD00BF083A0000212810B537D81C4A67
:1028200002EBC00301295B68144601D004290FD1D3
:1028300054F83020012082F880024FF4A2721A600E
:102840001A6804290CBF42F0200222F020021DE089
:1028500052F83020002082F8800211B18A1E012A2D
:1028600012D84FF4807202291A6003D11A6842F01C
:1028700003020BE003290AD11A6842F002021A602F
:102880001A6822F0010201E040F203121A6010BD42
:10289000083A0000282838B5604A04460B4611D192
:1028A00012780B2A04D8C2F10C0201FA02F304E0F8
:1028B0000C2A1CBF0C3A41FA02F31846BDE8384016
:1028C00000F0E4B911780125002B05FA01F2D8BF18
:1028D000002102DD934205D32946FFF77DFF204604
:1028E000294697E00338C2B2012A01D84C4A06E0D3
:1028F000202C01D0192C01D14A4A00E04A4A126822
:1029000002FB0332CA401D287BD8DFE800F0575F86
:102910004E337A7A212A7A7A7A7A7A7A7A7A7A3C71
:10292000450F187A707A7A7A7A7A7A673F4B1A600A
:1029300003F5973340F2444203F5FA735FE03C4BF2
:102940001A6003F5973340F2444203F5F87356E0FA
:10295000384B1A6003F5973340F2444203F5F6739F
:102960004DE0354B1A6003F5973340F2444203F5CE
:10297000F47344E0314B1A6003F59F3340F2444254
:1029800003F5F0733BE02E4B1A6003F59F3340F2E2
:10299000444203F5EE7332E02A4B1A6003F59F338D
:1029A00040F2444203F5EC7329E0274B1A6003F52B
:1029B0009F3340F2444203F5EA7320E0234B1A6050
:1029C00003F580334FF45172203318E0204B1A6026
:1029D00003F580334FF451721C3310E01D4B1A6025
:1029E000A3F5DB234FF45172A3F5F96307E01A4B0B
:1029F0001A60A3F5DB234FF45172A3F2CC731A6073
:102A000038BD7F2B2046D4BF00210121FFF7E4FE13
:102A100020460121BDE83840FFF7FEBE6C9FFF1F36
:102A20000890034008800B4008800340108003405A
:102A300018800340208003402880034030800340FA
:102A4000388003404080034048800340109003409A
:102A50001890034010800B4018800B4072B60C4B4E
:102A60000C491A680C4B1B68096862B6490102D50B
:102A7000322A88BF0133C2F58C32482102F23F125C
:102A8000B2FBF1F24FF47A7000FB0320704700BFF5
:102A900018E000E004ED00E0ECBAFF1F38B5044692
:102AA000FFF7DCFF054624B938BD013C0AD005F527
:102AB0007A75FFF7D3FF401BB0F57A7FF5D2FDF7AB
:102AC00057FEF6E738BDFFFF1F4B4FF4000210B56D
:102AD0001A604FF080721A604FF000721A604FF067
:102AE00080621A604FF000621A60184B184A194C45
:102AF000002048F6FF711860596028231360936026
:102B000013619361136293621363936309222260DA
:102B100004F58054043420606160A360236144F8AC
:102B2000042C04F5FE2420600B4801600B490B6067
:102B30008B600B4B1A6000F04DF8FA20FFF7AEFFE8
:102B4000BDE81040FFF7C8BC08E100E00480034086
:102B50000C8003400080034008800B400C800B4039
:102B600000800B401FB572B6154B70221A70154AC3
:102B7000412111700F2102F8011C80221A701A786D
:102B80001206FCD5104B186862B6104B984298BFDD
:102B90000A2301AC98BF584321460A2200F090F85E
:102BA0000023E15C0A4A29B102EB430001330A2BFE
:102BB0004180F6D101335B00137004B010BD00BF3B
:102BC0000000024007000240080002407F96980083
:102BD000F69FFF1F10B5204B2048214960221A7034
:102BE000E1225A701F4B204A1C78204B082C01D13F
:102BF000012402E00A2C03D119240460132005E00B
:102C00000C2C0CBF15243D240460122008601460B5
:102C10001860174B17491B78174A03B101230B6043
:102C20001360164B164A1978164B012901D88021DA
:102C30000BE0042901D8842107E0082901D8852167
:102C400003E0102994BF86218721116019600E4B83
:102C500001221A7010BD00BF0040074008B00340B9
:102C60000CB003400CA0FF1F08B00B400CB00B4091
:102C7000F1BAFF1F20B0034020B00B400DA0FF1F92
:102C800024B0034024B00B40F0BAFF1F084B1A6871
:102C900042F480521A60074B1A78074B0AB180221F
:102CA00000E0C0221A70054B80F30C0018807047BA
:102CB0002C800440F1BAFF1F21C00C4000C00C4022
:102CC00010B50023B0FBF2F402FB1400092894BFF6
:102CD00030303730C0B2C85420460CB10133F1E770
:102CE000CA18547022469A4206DA885CCC5C8C542E
:102CF000C8540132013BF6E7084610BD80F00040A1
:102D000002E000BF81F0004142001FBF5FEA4103C3
:102D100092EA030F7FEA226C7FEA236C6AD04FEAC3
:102D20001262D2EB1363C1BFD21841404840414008
:102D3000B8BF5B42192B88BF704710F0004F40F4BA
:102D4000000020F07F4018BF404211F0004F41F4D6
:102D5000000121F07F4118BF494292EA030F3FD0A2
:102D6000A2F1010241FA03FC10EB0C00C3F12003B5
:102D700001FA03F100F0004302D5494260EB400044
:102D8000B0F5000F13D3B0F1807F06D340084FEAAF
:102D9000310102F10102FE2A51D2B1F1004F40EBA4
:102DA000C25008BF20F0010040EA0300704749000C
:102DB00040EB000010F4000FA2F10102EDD1B0FAD7
:102DC00080FCACF1080CB2EB0C0200FA0CF0AABFCC
:102DD00000EBC25052421843BCBFD040184370476A
:102DE00092F0000F81F4000106BF80F40000013270
:102DF000013BB5E74FEA41037FEA226C18BF7FEA47
:102E0000236C21D092EA030F04D092F0000F08BF88
:102E10000846704790EA010F1CBF0020704712F06F
:102E20007F4F04D1400028BF40F00040704712F1AE
:102E300000723CBF00F50000704700F0004343F013
:102E4000FE4040F4000070477FEA226216BF084649
:102E50007FEA23630146420206BF5FEA412390EA0C
:102E6000010F40F4800070474FF0000304E000BF02
:102E700010F0004348BF40425FEA000C08BF7047B3
:102E800043F0964301464FF000001CE050EA010277
:102E900008BF70474FF000030AE000BF50EA01028C
:102EA00008BF704711F0004302D5404261EB410179
:102EB0005FEA010C02BF84460146002043F0B6439E
:102EC00008BFA3F18053A3F50003BCFA8CF2083AC3
:102ED000A3EBC25310DB01FA02FC634400FA02FCCC
:102EE000C2F12002BCF1004F20FA02F243EB0200D3
:102EF00008BF20F00100704702F1200201FA02FC35
:102F0000C2F1200250EA4C0021FA02F243EB020027
:102F100008BF20EADC7070474FF0FF0C1CEAD0526B
:102F20001EBF1CEAD15392EA0C0F93EA0C0F6FD02C
:102F30001A4480EA010C400218BF5FEA41211ED00A
:102F40004FF0006343EA501043EA5111A0FB0131F6
:102F50000CF00040B1F5000F3EBF490041EAD371CB
:102F60005B0040EA010062F17F02FD2A1DD8B3F147
:102F7000004F40EBC25008BF20F00100704790F0B6
:102F8000000F0CF0004C08BF49024CEA502040EA08
:102F900051207F3AC2BFD2F1FF0340EAC2507047CE
:102FA00040F400004FF00003013A5DDC12F1190F0C
:102FB000DCBF00F000407047C2F10002410021FA7E
:102FC00002F1C2F1200200FA02FC5FEA310040F196
:102FD000000053EA4C0308BF20EADC70704792F00F
:102FE000000F00F0004C02BF400010F4000F013A47
:102FF000F9D040EA0C0093F0000F01F0004C02BF42
:10300000490011F4000F013BF9D041EA0C018FE7B0
:103010000CEAD15392EA0C0F18BF93EA0C0F0AD0B6
:1030200030F0004C18BF31F0004CD8D180EA0100DC
:1030300000F00040704790F0000F17BF90F0004F75
:10304000084691F0000F91F0004F14D092EA0C0F57
:1030500001D142020FD193EA0C0F03D14B0218BFEA
:10306000084608D180EA010000F0004040F0FE4030
:1030700040F40000704740F0FE4040F440007047CC
:103080004FF0FF0C1CEAD0521EBF1CEAD15392EA4B
:103090000C0F93EA0C0F69D0A2EB030280EA010C3B
:1030A00049024FEA402037D04FF0805343EA1111D4
:1030B00043EA10130CF000408B4238BF5B0042F132
:1030C0007D024FF4000C8B4224BF5B1A40EA0C00D7
:1030D000B3EB510F24BFA3EB510340EA5C00B3EB09
:1030E000910F24BFA3EB910340EA9C00B3EBD10FF7
:1030F00024BFA3EBD10340EADC001B0118BF5FEA49
:103100001C1CE0D1FD2A3FF650AF8B4240EBC25071
:1031100008BF20F0010070470CF0004C4CEA502032
:103120007F32C2BFD2F1FF0340EAC250704740F481
:1031300000004FF00003013A37E792F0000F00F073
:10314000004C02BF400010F4000F013AF9D040EAF1
:103150000C0093F0000F01F0004C02BF490011F485
:10316000000F013BF9D041EA0C0195E70CEAD1537D
:1031700092EA0C0F08D142027FF47DAF93EA0C0F64
:103180007FF470AF084676E793EA0C0F04D14B0248
:103190003FF44CAF08466EE730F0004C18BF31F0FA
:1031A000004CCAD130F000427FF45CAF31F00043F4
:1031B0007FF43CAF5FE700BF4FF0FF3C06E000BF8D
:1031C0004FF0010C02E000BF4FF0010C4DF804CDB0
:1031D0004FEA40024FEA41037FEA226C18BF7FEAC0
:1031E000236C11D001B052EA530C18BF90EA010FC2
:1031F00058BFB2EB030088BFC81738BF6FEAE17051
:1032000018BF40F0010070477FEA226C02D15FEAEC
:10321000402C05D17FEA236CE4D15FEA412CE1D058
:103220005DF8040B704700BF844608466146FFE71F
:103230000FB5FFF7C9FF002848BF10F1000F0FBD01
:103240004DF808EDFFF7F4FF0CBF012000205DF8FA
:1032500008FB00BF4DF808EDFFF7EAFF34BF01207F
:1032600000205DF808FB00BF4DF808EDFFF7E0FF18
:1032700094BF012000205DF808FB00BF4DF808ED69
:10328000FFF7D2FF94BF012000205DF808FB00BFCC
:103290004DF808EDFFF7C8FF34BF012000205DF8AE
:1032A00008FB00BF42000ED2B2F1FE4F0BD34FF02D
:1032B0009E03B3EB126209D44FEA002343F00043AC
:1032C00023FA02F070474FF00000704712F1610FCF
:1032D00001D1420202D14FF0FF3070474FF00000A1
:1032E000704700BF08B5064B1A79064B1A70FFF7F6
:1032F000B5FB054B1860054B00221A7008BD00BFD6
:1033000010BBFF1F1F8000400CBBFF1F08BBFF1F2F
:1033100010B5044600F07AFA204610BD10B5054CF1
:10332000218005490A60054A1360054B9DF8082075
:103330001A7010BDF4BAFF1FF8BAFF1F04BBFF1FBD
:10334000F2BAFF1F864B1B882DE9F0471825854EE2
:103350005D43306800212A46FDF7D2F8824B186899
:1033600020B100212A46FDF7CBF801E032681A604F
:103370007E4F7F4CDFF82C82DFF82C92FF233B60DE
:1033800002200121FFF748FA0E200121FFF744FA3D
:1033900007200121FFF740FA08200121FFF73CFA3E
:1033A00006200121FFF738FA14200121FFF734FA33
:1033B00015200121FFF730FA01210520FFF72CFA33
:1033C0006C4B1B7813F0100F6B4B4FF0080018BFBD
:1033D0001C46FFF77DF92046FFF746FD04462146CF
:1033E0000320FFF781F921460420FFF77DF9032030
:1033F0003C21FFF74FFA0420B021FFF74BFA5F4B57
:103400005F4A1A6003200221FFF706FA0F2000210D
:10341000FFF702FA5B4B5C4A1A60A3F5FE530C3BC4
:10342000D8F80010366802F500721A600B68C1F80F
:1034300000900A69554A0A61A8B2CA8AC8828A8B72
:1034400008228A83B1F81EC0DFF860C1C883002358
:1034500001240B714B718B71CB710C724B728B729F
:10346000CB720B734B738B73CB730B754B750B76E6
:103470004B768B76CB76DCF800106D42D1F800A04D
:103480000E60CD600D69424D0D61CD8AC8828D8B75
:103490008A83CA8B0C71C8834B718B71CB710C7290
:1034A0004B728B72CB720B754B750B764B768B76A2
:1034B000CB7638490A681568137153719371D371CB
:1034C000147253729372C2F80090D3721569176127
:1034D000D58AD082958B13730A259583D58B537328
:1034E000D0839373D3731375537513765376937692
:1034F000D376294A4FF0805010604FF0402241F2BD
:103500003200106098F8042002F1804202F5043283
:10351000B220137010709CF8042002F1804202F572
:103520000432B320137010700A791C4802F18042F3
:1035300002F504321370B12313700A79184B02F1AB
:10354000100143F8210053119B0003F1604303F580
:10355000614302F01F0294401C60BDE8F08700BF89
:10356000F4BAFF1FF8BAFF1F04BBFF1FC8F00F40DB
:1035700000350C00F2BAFF1F801A060000A00440BC
:103580000003010000B0044000010200C4F00F403D
:10359000C0F00F4010BBFF1F0C0008E0E532000038
:1035A000009AFF1FFCBAFF1F703B000018BBFF1FF3
:1035B00010B5224B1A781C46002AFAD1204B196804
:1035C000204B1868814205D01F4B1B8818225A4394
:1035D000FDF786FAFFF742FA1C4B1B68C01A312828
:1035E000F8D91B4B196818331B6872B60122227078
:1035F000184A10689842FBD910689842FCD81068A5
:103600009842FCD3124A144801F0E70313600123E7
:10361000036000F580500360104B4FF400501860B9
:103620000F4B18790F4B18700F48007918700F481E
:1036300000791870116062B610BD00BF08BBFF1F93
:1036400004BBFF1FF8BAFF1FF4BAFF1F0CBBFF1F1C
:103650000090034004900340A0A00440A0900440C8
:10366000FCBAFF1F1B80004018BBFF1F10BBFF1FD1
:1036700070B5214B1B7803F00703022B0BD0032BF3
:1036800012D0012B18D1100202F47F0380B2C2F3D2
:10369000072202430FE01002131200F47F0003F42C
:1036A0007F430343D2B206E0130223F07F4323F0AB
:1036B000FF03C2F307421A43104B1888B1FBF0F323
:1036C00000FB13110E48012406689C40182303FBDD
:1036D0000161E5B201314FF4000011F8016C1042B4
:1036E00014BF2E43A643013B01F8016C4FEA500082
:1036F00001F10101F1D170BDF2BAFF1FF4BAFF1F51
:1037000004BBFF1F70B5114E114D124C3046002105
:1037100000F026F83046104E2246294600F090F878
:103720003046002100F01CF830460C4E2246294657
:1037300000F086F83046002100F012F830462946A5
:103740002246BDE8704000F07BB800BFFCBAFF1F06
:1037500011330000609FFF1F18BBFF1F10BBFF1F2E
:1037600010B572B6264A09B9016811B9118800234B
:103770000FE003790F2BF9D814881C41E407F5D525
:1037800003F1007303F59063B1EB431FEED162B612
:1037900010BD41FA03F4E40728D401249C402143DE
:1037A000118062B61749DAB202710C6844F0020463
:1037B0000C6051F8044C03F1007344F0020441F82A
:1037C000044C03F5906310495B0182240C608A76F7
:1037D0008A770A76CA77002203601A605A609A6074
:1037E000DA601A615A619A61DA6110BD0133102BF7
:1037F000CFD162B6002303601023037110BD00BF58
:1038000020BBFF1F408004400080004003790F2B45
:1038100010D8094A137072B6084B0279012101FAD7
:1038200002F2198821EA02021A8062B6102303719B
:1038300000230360704700BF1A80004020BBFF1FB9
:1038400003460846194600F001B8FFFF70B5064C64
:1038500006460D4613462CB131462A460220AFF3E8
:10386000008070BD204670BD0000000070B50E4B9A
:103870000E4DED1AAD1000241E46AC4204D056F891
:10388000242090470134F8E700F074F9084D094B03
:10389000ED1AAD1000241E46AC4204D056F8242088
:1038A00090470134F8E770BD803B0000803B00008A
:1038B0009C3B0000803B0000034613F8012B002ACC
:1038C000FBD1181A0138704700000000000000000A
:1038D000630800007B0800004B080000530800004C
:1038E0004F08000057080000E1070000F50700003E
:1038F00015080000190800001F0800002508000036
:103900002B0800003B0800005B0800005F08000077
:10391000B1070000BD070000C9070000D50700007F
:103920008B0800006F08000000000000000000008D
:10393000730900008B0900005B09000063090000A7
:103940005F09000067090000F10800000509000098
:1039500025090000290900002F0900003509000091
:103960003B0900004B0900006B0900006F090000D3
:10397000C1080000CD080000D9080000E5080000DB
:103980009B0900007F09000000000000000000000B
:10399000830A00009B0A00006B0A0000730A000003
:1039A0006F0A0000770A0000010A0000150A0000F3
:1039B000350A0000390A00003F0A0000450A0000ED
:1039C0004B0A00005B0A00007B0A00007F0A00002F
:1039D000D1090000DD090000E9090000F509000037
:1039E000AB0A00008F0A0000000000000000000089
:1039F000692500006F250000592500005D250000A5
:103A000061250000652500004008FE4340A00440F9
:103A10004408FE4344A004400018FE4300C0044094
:103A20003000FE43309004403400FE4334900440A4
:103A30001C18FE431CC004401018FE4310C0044074
:103A40000818FE4308C004400C18FE430CC0044094
:103A50000C10FE430CB004401010FE4310B00440A4
:103A60001810FE4318B004401C10FE431CB0044064
:103A70001410FE4314B004400418FE4304C0044074
:103A80000010FE4300B004400008FE4300A00440C4
:103A90000408FE4304A004400C08FE430CA00440AC
:103AA0000808FE4308A004401418FE4314C0044054
:103AB0001818FE4318C004400410FE4304B004402C
:103AC0000810FE4308B004401400FE431490044064
:103AD0004C08FE434CA004400420FE4304D00440A4
:103AE0002410FE4324B004402010FE4320B00440C4
:103AF0002810FE4328B004402C10FE432CB0044094
:103B00000020FE4300D004404808FE4348A0044083
:103B10001000FE431090044000151915000100002C
:103B20006D9FFF1F1200000000020000989FFF1F02
:103B30004300000000030000F29FFF1F0000000090
:103B400001030904809FFF1F000000000203090415
:103B5000DC9FFF1F0000000003030904F69FFF1F06
:103B60000000000000000000000000000000000055
:103B7000FFFFFFFFF8B500BFF8BC08BC9E467047CA
:103B800035040000C9040000A5080000B5090000C4
:0C3B9000C50A0000792500000537000080
:103B9C000000000001090A00FFFFFFFF08120100EE
:103BAC000202000040C01683040001010203010060
:103BBC0018035400650065006E0073007900640002
:103BCC00750069006E006F0009024300020100C01D
:103BDC003209040000010202010005240010010555
:103BEC0024010101042402060524060001070582B4
:103BFC000310004009040100020A0000000705033D
:103C0C000240000007058402400000001603550026
:103C1C0053004200200053006500720069006100EF
:103C2C006C00040309040C030000000000000000F9
:103C3C000000000000000000000000000A0400006A
:00000001FF
